:1000000083018B018A017628A000030EA1008301E1
:100010000C1C0D2885120C10D0168B1C2F28051DCA
:1000200021282908820734283D28432843284328CB
:100030004328432843284328492850285828602823
:100040006F28B03081000B118B1083160117210E21
:100050008300A00E200E09008B1083160113210EC1
:100060008300A00E200E0900501CA80A0B19A8013D
:10007000F63028070318A90A2C280B19A90AAA0187
:10008000A801A6012C2803140B190310A20DA90A1C
:100090002C2803140B190310A20D2A0AA9072C28D7
:1000A00000300B190230A9002208A300AA0A2C284C
:1000B00000300B190230A9002208A400AA0A2C283B
:1000C0000B1D69280230A9002208A500AA0AD01534
:1000D0002C28A9012208A5005014D0112C28A90110
:1000E0000B192F282208A60050142C288501073050
:1000F00099000C309F0083160C309F001C30850047
:10010000FF239000233095009601990188308100EB
:1001100001308C0083128C0101309000203084006B
:100120008001840A60300406031D9028D0308B00C3
:100130009630C100D321E2215018A321D01AA1206A
:100140009C28D0120B1AA628A9010B1644080339C3
:100150008207AD28BE28C328C401C601C7014108D3
:10016000D12042180B12421885161014C40A4808F0
:10017000031DC80BF12805108510F1289630D120F9
:100180001014C40AF228101046088F0047088E0089
:10019000E0308E0703188F0AB1308F071014C401A6
:1001A0002B2910108F01D3008E008E0D8F0D8E0D18
:1001B0008F0D8E0D8F0DF8308E0553088E070318A6
:1001C0008F0A8E0703188F0A0E08C7070318C60A7E
:1001D0000F08C6078E098F0901308E0703188F0A92
:1001E00008000800421C0800431C1729451807296D
:1001F000C00BFD283308C000C1033209013E963E02
:100200004106031D08000430C00045140800C00B5F
:1002100008004310451042100530C800431C051467
:10022000431885144308013AAB007F30F72945187D
:100230002729C00B1E293308C000C10A9630320797
:100240004106031D08000430C00045140800C00B1F
:10025000080043140A2985193129CA03CA0B08006A
:1002600039294A080319080042143308C000CA019A
:1002700008000514851D3929DF01CD149721D01EF2
:100280004E29D012CD0B4E29CD140310CE1B0314D2
:10029000CF0DCE0D031C051003180514CC0B6229DD
:1002A0004C150310851903144B0DCB00C03A031DE8
:1002B0006229DF1CDF0ADF0A97215F1D3F29051035
:1002C0000B160800501C3F2950100B12230824065F
:1002D00025062606031D95292308C039803AA41B4C
:1002E000031D9529A41D9529DF1C8829A303230D2F
:1002F000D300530DFC39D300240C0339D304530A23
:10030000AB005F08F721D32142143308C0005F29F6
:100310002308AB000030F7212408AB000130F7219F
:10032000D32142143308C0005F290B163F29DF1C7C
:100330009F29FF305F18AA30CE00CF000800C030E0
:10034000CE00CF00080050100B122308240625060B
:100350002606031DD02923080319CA29C039803A6B
:10036000031DD029B329D01330082306031DC62945
:1003700031082406031DBF29431C4214C429013A35
:10038000031DC629431842143308C000C729D013DF
:100390000B1608002408031DD029D0170B160800DF
:1003A000D0130B160800303084000030AC002C084D
:1003B000F1218000333004060319E129840AAC0AD4
:1003C000D72908007F30F121C30032084318FF3AD3
:1003D0004318013E963EC1001030C000451442143F
:1003E000080083169B001C141A0883120800F121D0
:1003F0002B06031908002B0883169A001C158B1373
:1004000055309D00AA309D009C148B171C119C1820
:06041000072A8312080018
:02400E00D43F9D
:084200008100F800320001000A
:10424000203453346534723476346F34203420345F
:10425000203450346F3469346E3474342034203454
:1042600041342E3420344834613468346E34203480
:10427000313436342F34303436342F34313437340B
:0242FE000000BE
:00000001FF
