:1000000083018B018A017928A000030EA1008301DE
:100010000C1C0D2885120C10D0168B1C2C28051DCD
:1000200021282908820737284028462846284628BC
:1000300046284628462846284C2853285B2863280B
:100040007228B03081000B118B10831601173228F3
:100050008B108316011332280C1F32280C131E0834
:10006000D9005017210E8300A00E200E0900501C4D
:10007000A80A0B19A801F63028070318A90A28288E
:100080000B19A90AAA01A801A601282803140B1913
:100090000310A20DA90A282803140B190310A20D9E
:1000A0002A0AA907282800300B190230A9002208C3
:1000B000A300AA0A282800300B190230A900220840
:1000C000A400AA0A28280B1D6C280230A9002208C7
:1000D000A500AA0AD0152828A9012208A5005014B5
:1000E000D0112828A9010B1932282208A600501483
:1000F00028288501073099000C309F0083160C30AA
:100100009F001C308500FF2390002330950096014E
:1001100099018830810041308C0083128C010130BC
:100120009000203084008001840A60300406031DA2
:100130009328D0308B009630C100DB21EA21501883
:10014000AB21D01AA52064009F28D0120B1AAA2830
:10015000A9010B16420803398207B128C228C72813
:10016000C201C601C7014108D520BF180B12BF1834
:1001700085161014C20A4808031DC80BF52805107F
:100180008510F5289630D5201014C20AF6281010D4
:1001900046088F0047088E00E0308E0703188F0A4C
:1001A000B1308F071014C201352910108F01D30010
:1001B0008E008E0D8F0D8E0D8F0D8E0D8F0DF830E4
:1001C0008E0553088E0703188F0A8E0703188F0AAF
:1001D0000E08C7070318C60A0F08C6078E098F093D
:1001E00001308E0703188F0A08000800BF1C0800A2
:1001F000431C1B293F1A0B29C00B01293308C000DF
:10020000C1033209013E963E4106031D0800043039
:10021000C0003F160800C00B080043103F12BF107B
:100220000530C800431C0514431885144308013ADF
:10023000AB007F30FF293F1A2B29C00B222933083E
:10024000C000C10A963032074106031D0800043081
:10025000C0003F160800C00B080043140E29BF144D
:100260003308C0006430C500080085193B29CA0363
:10027000CA0B080041294A0803190800CA012F21A6
:1002800008000514851D4129DF01CD149F21D01ED2
:100290005629D012CD0B5629CD140310CE1B0314B2
:1002A000CF0DCE0D031C051003180514CC0B6A29C5
:1002B0004C150310851903144B0DCB00C03A031DD8
:1002C0006A29DF1CDF0ADF0A9F215F1D472905100D
:1002D0000B160800501C472950100B122308240647
:1002E00025062606031D9D292308C039803AA41B34
:1002F000031D9D29A41D9D29DF1C9029A303230D07
:10030000D300530DFC39D300240C0339D304530A12
:10031000AB005F08FF21DB21BF143308C000672951
:100320002308AB000030FF212408AB000130FF217F
:10033000DB21BF143308C00067290B164729DF1CD7
:10034000A729FF305F18AA30CE00CF000800C030C8
:10035000CE00CF00080050100B12230824062506FB
:100360002606031DD82923080319D229C039803A4B
:10037000031DD829BB29D01330082306031DCE291D
:1003800031082406031DC729431CBF14CC29013A98
:10039000031DCE294318BF143308C000CF29D01342
:1003A0000B1608002408031DD829D0170B160800C7
:1003B000D0130B160800303084000030AC002C083D
:1003C000F9218000333004060319E929840AAC0AB4
:1003D000DF2908007F30F921C30032084318FF3AB3
:1003E0004318013E963EC1001030C0003F16BF14B6
:1003F000080083169B001C141A0883120800F921B8
:100400002B06031908002B0883169A001C158B1362
:1004100055309D00AA309D009C148B171C119C1810
:060420000F2A8312080000
:02400E00D43F9D
:084200008100F800320001000A
:10424000203453346534723476346F34203420345F
:10425000203450346F3469346E3474342034203454
:1042600041342E3420344834613468346E34203480
:10427000323430342F34303436342F343134373410
:0242FE000000BE
:00000001FF
