:1000000083018B018A017628A000030EA1008301E1
:100010000C1C0D2885120C10D0168B1C2F28051DCA
:1000200021282908820734283D28432843284328CB
:100030004328432843284328492850285828602823
:100040006F28B03081000B118B1083160117210E21
:100050008300A00E200E09008B1083160113210EC1
:100060008300A00E200E0900501CA80A0B19A8013D
:10007000F63028070318A90A2C280B19A90AAA0187
:10008000A801A6012C2803140B190310A20DA90A1C
:100090002C2803140B190310A20D2A0AA9072C28D7
:1000A00000300B190230A9002208A300AA0A2C284C
:1000B00000300B190230A9002208A400AA0A2C283B
:1000C0000B1D69280230A9002208A500AA0AD01534
:1000D0002C28A9012208A5005014D0112C28A90110
:1000E0000B192F282208A60050142C288501073050
:1000F000990083169F010C308500FF239000333058
:100100009500960199018830810001308C0083129E
:100110008C0101309000203084008001840A60301E
:100120000406031D8D28D0308B009630C100D021ED
:10013000DF215018A021D01A9E209928D0120B1A26
:10014000A328A9010B16440803398207AA28BB2853
:10015000C028C401C601C7014108CE2042180B12B5
:10016000421885161014C40A4808031DC80BEE284F
:1001700005108510EE289630CE201014C40AEF2802
:10018000101046088F0047088E00E0308E070318D5
:100190008F0AB1308F071014C401282910108F0165
:1001A000D3008E008E0D8F0D8E0D8F0D8E0D8F0D49
:1001B000F8308E0553088E0703188F0A8E07031830
:1001C0008F0A0E08C7070318C60A0F08C6078E094C
:1001D0008F0901308E0703188F0A08000800421C9F
:1001E0000800431C142945180429C00BFA283308B9
:1001F000C000C1033209013E963E4106031D0800BE
:100200000430C00045140800C00B0800431045101E
:1002100042100530C800431C0514431885144308D8
:10022000013AAB007F30F42945182429C00B1B2963
:100230003308C000C10A963032074106031D08008A
:100240000430C00045140800C00B080043140729FF
:1002500085192E29CA03CA0B080036294A08031932
:10026000080042143308C000CA0108000516851DA5
:100270003629DF01CD149421D01E4B29D012CD0B8D
:100280004B29CD140310CE1B0314CF0DCE0D031C30
:10029000051203180516CC0B5F294C1503108519A0
:1002A00003144B0DCB00C03A031D5F29DF1CDF0A8E
:1002B000DF0A94215F1D3C2905120B160800501C13
:1002C0003C2950100B122308240625062606031D80
:1002D00092292308C039803AA41B031D9229A41D2A
:1002E0009229DF1C8529A303230DD300530DFC396C
:1002F000D300240C0339D304530AAB005F08F42164
:10030000D02142143308C0005C292308AB00003020
:10031000F4212408AB000130F421D0214214330829
:10032000C0005C290B163C29DF1C9C29FF305F189C
:10033000AA30CE00CF000800C030CE00CF000800A9
:1003400050100B122308240625062606031DCD296E
:1003500023080319C729C039803A031DCD29B029C4
:10036000D01330082306031DC32931082406031DBA
:10037000BC29431C4214C129013A031DC329431857
:1003800042143308C000C429D0130B1608002408F7
:10039000031DCD29D0170B160800D0130B1608002B
:1003A000303084000030AC002C08EE218000333067
:1003B00004060319DE29840AAC0AD42908007F3018
:1003C000EE21C30032084318FF3A4318013E963E1F
:1003D000C1001030C00045144214080083169B0071
:1003E0001C141A0883120800EE212B0603190800BA
:1003F0002B0883169A001C158B1355309D00AA30CC
:100400009D009C148B171C119C18042A8312080051
:02400E00D43F9D
:084200008100F800320001000A
:10424000203453346534723476346F34203420345F
:10425000203450346F3469346E3474342034203454
:1042600041342E3420344834613468346E34203480
:10427000313435342F34303436342F34313437340C
:0242FE000000BE
:00000001FF
