:1000000083018B018A018128A000030EA1008301D6
:100010000C1C0D2885120C10D0168B1C3428051DC5
:100020002128290882073F2848284E284E284E2894
:100030004E284E284E284E2854285B2863286B28CB
:100040007A28B03081000B118B1083160117210E16
:100050008300A00E200E09008B1083160113210EC1
:100060008300A00E200E09000C1F3A280C131E0856
:10007000D9005017210E8300A00E200E0900501C3D
:10008000A80A0B19A801F63028070318A90A2C287A
:100090000B19A90AAA01A801A6012C2803140B19FF
:1000A0000310A20DA90A2C2803140B190310A20D8A
:1000B0002A0AA9072C2800300B190230A9002208AF
:1000C000A300AA0A2C2800300B190230A90022082C
:1000D000A400AA0A2C280B1D74280230A9002208AB
:1000E000A500AA0AD0152C28A9012208A5005014A1
:1000F000D0112C28A9010B193A282208A600501467
:100100002C288501073099000C309F008316283079
:100110009F001C308500FF2390002330950096013E
:1001200099018830810041308C0083128C010130AC
:100130009000203084008001840A60300406031D92
:100140009B28D0308B009630C1007D228C22501825
:100150004D22D01AAD206400A728D0120B1AB22865
:10016000A9010B16420803398207B928CA28CF28EB
:10017000C201C601C7014108DD20BF180B12BF181C
:1001800085161014C20A4808031DC80BFD28051067
:100190008510FD289630DD201014C20AFE281010AC
:1001A00046088F0047088E00E0308E0703188F0A3C
:1001B000B1308F071014C201372910108F01D300FE
:1001C0008E008E0D8F0D8E0D8F0D8E0D8F0DF830D4
:1001D0008E0553088E0703188F0A8E0703188F0A9F
:1001E0000E08C7070318C60A0F08C6078E098F092D
:1001F00001308E0703188F0A08000800BF1C080092
:10020000431C23293F1A1329C00B09293308C000B6
:10021000C1033209013E963E4106031D0800043029
:10022000C0003F160800C00B080043103F12BF106B
:100230000530C800431C0514431885144308013ACF
:10024000AB007F30C72A3F1A3329C00B2A29330855
:10025000C000C10A963032074106031D0800043071
:10026000C0003F160800C00B08004314162985196A
:100270003D29CA03CA0B080045294A08031908008A
:10028000BF143308C000CA0108003F151F1405142D
:100290002630CA009F14640085195C29D01E4B29A2
:1002A000D012CA0B4B2964000510851D5329BF15B8
:1002B000DF01CD1541226029DF01DF14CD15412278
:1002C0006400D01EB229E0308E00B1308F00D01211
:1002D000CD0BB229CD150310CE1B0314CF0DCE0DBF
:1002E000031C051003180514501FB2295013BE300B
:1002F000590203189029DA019630590203189F29F0
:10030000733059020318A6295A3059020318AC2930
:10031000DA01DB01DC01DD015E10DE105E11B129C6
:100320000314DA0D5A1EB1295B1A5E145C1ADE142E
:100330005D1A5E15DA01DB01DC01DD01B1295C1A11
:10034000B1295D1AB1290314DB0DB1295D1AB12958
:10035000DB010314DC0DB129DB01DC010314DD0D2D
:10036000B1299F14CC0BCD294C150310851903140A
:100370004B0DCB00C03A031DCD295F080319C629D8
:10038000DF1CDF0ADF0A41225F1D60299F10051074
:10039000BF113F111F100B160800DF18F429DE10E3
:1003A0005E105E1DD9295E118130D500F830D6006F
:1003B000312A501C60292308D5002408D6002508BE
:1003C000D7002608D80050100B1223082406250653
:1003D0002606031D3F2A5508C039803AD61B031D47
:1003E0003F2AD61D3F2A312A5F1C142A5E1CFF2992
:1003F000013033020319102A013033020B2ADE1CAC
:10040000082A043033020319102A013033070B2A5B
:100410005E1D102A0130B300AB005F08C7229B228B
:100420005E10DE105E1160295E1C1D2A3230320221
:1004300003192D2A05303207292ADE1C262A053009
:10044000320203192D2A05303202292A5E1D2D2A77
:100450001930B200AB005F08C7225E10DE105E11DB
:1004600060295508AB000030C7225608FE39AB00A2
:100470000130C7227D22BF143208C000C6290B16E6
:100480006029DF1C492AA0305F18A830CE00CF00B9
:100490000800F030CE00CF00080050100B122308E7
:1004A000240625062606031D7A2A23080319742A22
:1004B000C039803A031D7A2A5D2AD01330082306FA
:1004C000031D702A31082406031D692A431CBF142A
:1004D0006E2A013A031D702A4318BF143308C00066
:1004E000712AD0130B1608002408031D7A2AD0178E
:1004F0000B160800D0130B160800303084000030B3
:10050000AC002C08C12280003330040603198B2A6A
:10051000840AAC0A812A08007F30C122C300320855
:100520004318FF3A4318013E963EC1001030C00008
:100530003F16BF1408003308D300D4010310D30DB5
:10054000D40D0310D30DD40D5308B5005408B400D6
:100550000310D30DD40D0310D30DD40D0310D30D00
:10056000D40D5308B5070318B40A5408B407031090
:10057000D30DD40D5308B5070318B40A5408B407B3
:10058000080083169B001C141A0883120800C1225D
:100590002B06031908002B0883169A001C158B13D1
:1005A00055309D00AA309D009C148B171C119C187F
:0605B000D72A83120800A7
:02400E00D43F9D
:084200008100F800320001000A
:10424000203453346534723476346F34203420345F
:10425000203450346F3469346E3474342034203454
:1042600041342E3420344834613468346E34203480
:10427000323435342F34303436342F34313437340B
:0242FE000000BE
:00000001FF
