:1000000083018B018A018128A000030EA1008301D6
:100010000C1C0D2885120C10D0168B1C3428051DC5
:100020002128290882073F2848284E284E284E2894
:100030004E284E284E284E2854285B2863286B28CB
:100040007A28B03081000B118B1083160117210E16
:100050008300A00E200E09008B1083160113210EC1
:100060008300A00E200E09000C1F3A280C131E0856
:10007000D9005017210E8300A00E200E0900501C3D
:10008000A80A0B19A801F63028070318A90A2C287A
:100090000B19A90AAA01A801A6012C2803140B19FF
:1000A0000310A20DA90A2C2803140B190310A20D8A
:1000B0002A0AA9072C2800300B190230A9002208AF
:1000C000A300AA0A2C2800300B190230A90022082C
:1000D000A400AA0A2C280B1D74280230A9002208AB
:1000E000A500AA0AD0152C28A9012208A5005014A1
:1000F000D0112C28A9010B193A282208A600501467
:100100002C288501073099000C309F008316683039
:100110009F001C308500FF2390002330950096013E
:1001200099018830810041308C0083128C010130AC
:100130009000203084008001840A60300406031D92
:100140009B28D0308B009630C1009822A7225018EF
:100150005E22D01AB1206400D01CA728D0103D2107
:10016000A728D0120B1AB628A9010B16420803398A
:100170008207BD28CE28D328C201C601C701410885
:10018000F620BF180B12BF1885161014C20A4808B3
:10019000031DC80B04290510851004299630F6208C
:1001A0001014C20A0529101046088F0047088E0057
:1001B000F0308E0703188F0AD8308F071014C20151
:1001C000D014080010108F01D3008E008E0D8F0DFB
:1001D0008E0D8F0D8E0D8F0DF8308E0553088E0706
:1001E00003188F0A8E0703188F0A0800E2200E08F2
:1001F000C7070318C60A0F08C6078E098F09013002
:100200008E0703188F0A08000800BF1C0800431C53
:100210000E293209013E963ECC0011293208963E45
:10022000CC003F1A2729C00B1F293308C000410802
:100230004C02031923290318C10A031CC1034108F6
:100240004C06031D08000430C0003F160800C00B18
:10025000080001305019C3062D2950113F12BF105C
:100260003F1908000A30C800431C051443188514C0
:100270004308013AAB007F30CB2A85194329CA03D2
:10028000CA0B08004C294A08031908005015BF146E
:100290003308C000CA0108003F151F14051426309A
:1002A000CA00640085196329D01E5129D012CA0BD7
:1002B000512964000510851D59299F14BF15DF01C0
:1002C000CD14522268299F14DF01DF14CD1452226D
:1002D0006400D01AB120D01CB829D010CD0B7A29D7
:1002E0004D160310CE1B0314CF0DCE0D031C0510AD
:1002F00003180514501FB8295013BE3059020318B3
:100300009629DA01963059020318A529733059024B
:100310000318AC295A3059020318B229DA01DB015B
:10032000DC01DD015E10DE105E11B7290314DA0D69
:100330005A1DB729DB195E14DC19DE14DD195E15B0
:10034000DA01DB01DC01DD01B729DC19B729DD1990
:10035000B7290314DB0DB729DD19B729DB01031415
:10036000DC0DB729DB01DC010314DD0DB7299F1477
:100370000310851903144B0DCB00C03A031DD0297F
:100380005F080319C929DF1CDF0ADF0A52225F1D3B
:1003900068299F100510BF113F111F100B16080090
:1003A000DF18F729DE105E105E1DDC295E1181303A
:1003B000D500F830D6003C2A501C68292308D50007
:1003C0002408D6002508D7002608D80050100B12A4
:1003D0005508560657065806031D502A5508C039B9
:1003E000803AD61B031D502AD61D502A3C2A5F1C7A
:1003F0001B2A5E1C032A5E10013033020319172AE0
:1004000001303302112ADE1C0D2ADE1004303302C3
:100410000319172A01303307112A5E1D172A5E11AE
:100420000130B300AB005F08CB22501546215E10AF
:10043000DE105E1168295E1C252A5E103230320201
:100440000319382A01303207332ADE1C2F2ADE1026
:10045000CE3032020319382A01303202332A5E1DAF
:10046000382A5E110030B200AB005F08CB22B72201
:100470005E10DE105E1168295508AB000030CB22FB
:100480005608FE39AB000130CB2298224310561893
:1004900043145015BF149630C1003208C000C9295A
:1004A0000B166829DF1C5A2AA0305F18A830CE002E
:1004B000CF000800F030CE00CF0008002308D500A0
:1004C0002408D6002508D7002608D80050100B12A3
:1004D0005508560657065806031D952A5508031950
:1004E0008F2AC039803A031D952A762AD013300806
:1004F0005506031D8B2A31085606031D832A431C0B
:10050000BF145015892A013A031D8B2A4318BF14C2
:1005100050153308C0008C2AD0130B16080056085B
:10052000031D952AD0170B160800D0130B160800D0
:10053000303084000030AC002C08C52280003330FD
:1005400004060319A62A840AAC0A9C2A08007F30F4
:10055000C522C30032084318FF3A4318013E963EB5
:10056000C1002030C0003F165015BF1408005011C4
:100570003208431CFF3A431C013E963EC100203026
:10058000C0003F16BF145011080083169B001C14B6
:100590001A0883120800C5222B06031908002B082D
:1005A00083169A001C158B1355309D00AA309D00B0
:0E05B0009C148B171C119C18DB2A8312080068
:02400E00D43F9D
:084200008100F800320001000A
:10424000203453346534723476346F34203420345F
:10425000203450346F3469346E3474342034203454
:1042600041342E3420344834613468346E34203480
:10427000313431342F34303437342F34313437340F
:0242FE000000BE
:00000001FF
