:1000000083018B018A018128A000030EA1008301D6
:100010000C1C0D2885120C10D0168B1C3428051DC5
:100020002128290882073F2848284E284E284E2894
:100030004E284E284E284E2854285B2863286B28CB
:100040007A28B03081000B118B1083160117210E16
:100050008300A00E200E09008B1083160113210EC1
:100060008300A00E200E09000C1F3A280C131E0856
:10007000D9005017210E8300A00E200E0900501C3D
:10008000A80A0B19A801F63028070318A90A2C287A
:100090000B19A90AAA01A801A6012C2803140B19FF
:1000A0000310A20DA90A2C2803140B190310A20D8A
:1000B0002A0AA9072C2800300B190230A9002208AF
:1000C000A300AA0A2C2800300B190230A90022082C
:1000D000A400AA0A2C280B1D74280230A9002208AB
:1000E000A500AA0AD0152C28A9012208A5005014A1
:1000F000D0112C28A9010B193A282208A600501467
:100100002C288501073099000C309F008316683039
:100110009F001C308500FF2390002330950096013E
:1001200099018830810041308C0083128C010130AC
:100130009000203084008001840A60300406031D92
:100140009B28D0308B009630C1009E22AD225018E3
:100150006422D01AB1206400D01CA728D0104321FB
:10016000A728D0120B1AB628A9010B16420803398A
:100170008207BD28CE28D328C201C601C701410885
:10018000F620BF180B12BF1885161014C20A4808B3
:10019000031DC80B04290510851004299630F6208C
:1001A0001014C20A0529101046088F0047088E0057
:1001B000F0308E0703188F0AD8308F071014C20151
:1001C000D014080010108F01D3008E008E0D8F0DFB
:1001D0008E0D8F0D8E0D8F0DF8308E0553088E0706
:1001E00003188F0A8E0703188F0A0800E2200E08F2
:1001F000C7070318C60A0F08C6078E098F09013002
:100200008E0703188F0A08000800BF1C0800431C53
:100210002E293F1A1A29C00B10293308C000C10328
:100220003209013E963E4106031D08000430C0001D
:100230003F160800C00B08005019431050113F1220
:10024000BF103F1908000A30C800431C05144318AA
:1002500085144308013AAB007F30D02A3F1A3E296B
:10026000C00B35293308C000C10A96303207410659
:10027000031D08000430C0003F160800C00B080032
:10028000501943141E2985194929CA03CA0B0800AD
:1002900052294A08031908005015BF143308C0003A
:1002A000CA0108003F151F1405142630CA00640057
:1002B00085196929D01E5729D012CA0B5729640005
:1002C0000510851D5F299F14BF15DF01CD1458222D
:1002D0006E299F14DF01DF14CD1458226400D01A58
:1002E000B120D01CBE29D010CD0B80294D16031093
:1002F000CE1B0314CF0DCE0D031C051003180514DF
:10030000501FBE295013BE30590203189C29DA0130
:10031000963059020318AB29733059020318B229D9
:100320005A3059020318B829DA01DB01DC01DD017A
:100330005E10DE105E11BD290314DA0D5A1DBD29B1
:10034000DB195E14DC19DE14DD195E15DA01DB0140
:10035000DC01DD01BD29DC19BD29DD19BD2903142E
:10036000DB0DBD29DD19BD29DB010314DC0DBD2921
:10037000DB01DC010314DD0DBD299F140310851979
:1003800003144B0DCB00C03A031DD6295F08031997
:10039000CF29DF1CDF0ADF0A58225F1D6E299F105C
:1003A0000510BF113F111F100B160800DF18FD29A3
:1003B000DE105E105E1DE2295E118130D500F8303E
:1003C000D600422A501C6E292308D5002408D600E6
:1003D0002508D7002608D80050100B1255085606DD
:1003E00057065806031D562A5508C039803AD61BB1
:1003F000031D562AD61D562A422A5F1C212A5E1C3E
:10040000092A5E100130330203191D2A013033021C
:10041000172ADE1C132ADE100430330203191D2AAA
:1004200001303307172A5E1D1D2A5E110130B3000B
:10043000AB005F08D02250154C215E10DE105E111B
:100440006E295E1C2B2A5E103230320203193E2ABE
:1004500002303207392ADE1C352ADE100230320221
:1004600003193E2A02303202392A5E1D3E2A5E11ED
:100470000230B200AB005F08D022BD225E10DE1059
:100480005E116E295508AB000030D0225608FE39A7
:10049000AB000130D0229E22431056184314501551
:1004A000BF149630C1003208C000CF290B166E2948
:1004B000DF1C602AA0305F18A830CE00CF000800F3
:1004C000F030CE00CF0008002308D5002408D60065
:1004D0002508D7002608D80050100B1255085606DC
:1004E00057065806031D9B2A55080319952AC0393B
:1004F000803A031D9B2A7C2AD01330085506031D21
:10050000912A31085606031D892A431CBF14501531
:100510008F2A013A031D912A4318BF14501533083E
:10052000C000922AD0130B1608005608031D9B2A00
:10053000D0170B160800D0130B16080030308400BB
:100540000030AC002C08CA228000333004060319A6
:10055000AC2A840AAC0AA22A080050157F30CA22AD
:10056000C30032084318FF3A4318013E963EC100CB
:100570001030C0003F16BF14080050113208431C51
:10058000FF3A431C013E963EC1001030C0003F16AA
:10059000BF14080083169B001C141A08831208005D
:1005A000CA222B06031908002B0883169A001C1573
:1005B0008B1355309D00AA309D009C148B171C1185
:0805C0009C18E02A83120800D8
:02400E00D43F9D
:084200008100F800320001000A
:10424000203453346534723476346F34203420345F
:10425000203450346F3469346E3474342034203454
:1042600041342E3420344834613468346E34203480
:10427000303433342F34303437342F34313437340E
:0242FE000000BE
:00000001FF
