:1000000083018B018A018128A000030EA1008301D6
:100010000C1C0D2885120C10D0168B1C3428051DC5
:100020002128290882073F2848284E284E284E2894
:100030004E284E284E284E2854285B2863286B28CB
:100040007A28B03081000B118B1083160117210E16
:100050008300A00E200E09008B1083160113210EC1
:100060008300A00E200E09000C1F3A280C131E0856
:10007000D9005017210E8300A00E200E0900501C3D
:10008000A80A0B19A801F63028070318A90A2C287A
:100090000B19A90AAA01A801A6012C2803140B19FF
:1000A0000310A20DA90A2C2803140B190310A20D8A
:1000B0002A0AA9072C2800300B190230A9002208AF
:1000C000A300AA0A2C2800300B190230A90022082C
:1000D000A400AA0A2C280B1D74280230A9002208AB
:1000E000A500AA0AD0152C28A9012208A5005014A1
:1000F000D0112C28A9010B193A282208A600501467
:100100002C288501073099000C309F008316283079
:100110009F001C30850034309000233095009601FC
:1001200099018830810041308C0083128C010130AC
:100130009000203084008001840A60300406031D92
:100140009B28D0308B009630C1007A22892250182B
:100150004A22D01AAD206400A728D0120B1AB22868
:10016000A9010B16420803398207B928CA28CF28EB
:10017000C201C601C7014108F120BF180B12BF1808
:1001800085161014C20A4808031DC80BFF28051065
:100190008510FF289630F1201014C20A0029101093
:1001A00046088F0047088E00F0308E0703188F0A2C
:1001B000D8308F071014C201392910108F01D300D5
:1001C0008E008E0D8F0D8E0D8F0D8E0D8F0DF830D4
:1001D0008E0553088E0703188F0A8E0703188F0A9F
:1001E0000800DD200E08C7070318C60A0F08C60757
:1001F0008E098F0901308E0703188F0A0800080046
:10020000BF1C0800431C25293F1A1529C00B0B29C8
:100210003308C000C1033209013E963E4106031D6A
:1002200008000430C0003F160800C00B080043104F
:100230003F12BF100530C800431C05144318851435
:100240004308013AAB007F309E2A3F1A3529C00B84
:100250002C293308C000C10A963032074106031D1D
:1002600008000430C0003F160800C00B080043140B
:10027000182985193F29CA03CA0B080047294A08CB
:1002800003190800BF143308C000CA0108003F1555
:100290001F1405142630CA009F14640085195E29B6
:1002A000D01E4D29D012CA0B4D2964000510851DA2
:1002B0005529BF15DF01CD143E226229DF01DF146D
:1002C000CD143E226400D01EB029D012CD0BB0292F
:1002D000CD140310CE1B0314CF0DCE0D031C05103F
:1002E00003180514501FB0295013BE3059020318CB
:1002F0008E29DA019630590203189D29733059026C
:100300000318A4295A3059020318AA29DA01DB017B
:10031000DC01DD015E10DE105E11AF290314DA0D81
:100320005A1EAF295B1A5E145C1ADE145D1A5E1544
:10033000DA01DB01DC01DD01AF295C1AAF295D1AAE
:10034000AF290314DB0DAF295D1AAF29DB010314BC
:10035000DC0DAF29DB01DC010314DD0DAF299F1497
:10036000CC0BCB294C150310851903144B0DCB0076
:10037000C03A031DCB295F080319C429DF1CDF0A1B
:10038000DF0A3E225F1D62299F100510BF113F1139
:100390001F100B160800DF18F229DE105E105E1D1C
:1003A000D7295E118130D500F830D6002E2A501C96
:1003B00062292308D5002408D6002508D70026087E
:1003C000D80050100B122308240625062606031D0C
:1003D0003C2A5508C039803AD61B031D3C2AD61D3D
:1003E0003C2A2E2A5F1C112A5E1CFD290130330293
:1003F00003190D2A01303302092ADE1C062A0430B3
:10040000330203190D2A01303307092A5E1D0D2A14
:100410000130B300AB005F089E225E10DE105E115B
:1004200062295E1C1A2A3230320203192A2A053048
:100430003207262ADE1C232A0030320203192A2A18
:1004400005303202262A5E1D2A2A1930B200AB007E
:100450005F089E225E10DE105E1162295508AB0017
:1004600000309E225608FE39AB0001309E227A22CF
:10047000BF143208C000C4290B166229DF1C462AAB
:10048000A0305F18A830CE00CF000800F030CE00BA
:10049000CF00080050100B1223082406250626065C
:1004A000031D772A23080319712AC039803A031DD6
:1004B000772A5A2AD01330082306031D6D2A3108E3
:1004C0002406031D662A431CBF146B2A013A031D30
:1004D0006D2A4318BF143308C0006E2AD0130B16C0
:1004E00008002408031D772AD0170B160800D01324
:1004F0000B160800303084000030AC002C08982225
:100500008000333004060319882A840AAC0A7E2A44
:1005100008007F309822C30032084318FF3A43187E
:10052000013E963EC1001030C0003F16BF140800C7
:1005300083169B001C141A088312080098222B06AD
:10054000031908002B0883169A001C158B135530CD
:100550009D00AA309D009C148B171C119C18AE2A7C
:0405600083120800FA
:02400E00D43F9D
:084200008100F800320001000A
:10424000203453346534723476346F34203420345F
:10425000203450346F3469346E3474342034203454
:1042600041342E3420344834613468346E34203480
:10427000323436342F34303436342F34313437340A
:0242FE000000BE
:00000001FF
